{
  "transactions": [
    {
      "hash": null,
      "transactionType": "CALL",
      "contractName": null,
      "contractAddress": "0x73846272813065c3e4efdb3fb82e0d128c8c2364",
      "function": "collect(address,uint8,bytes)",
      "arguments": [
        "0xb43B2CCCceadA5292732a8C58ae134AdEFcE09Bb",
        "0",
        "0x00000000000000000000000000000000000000000000000000000000000000400000000000000000000000000000000000000000000000000000000000000000000000000000000000000000000000000000000000000000000000000000004000000000000000000000000000000000000000000000000000000000000001409c901c08bbcbee383e781487674d7123e150e7e1b78b521db6d4a71066607f460000000000000000000000007d14ae5f20cc2f6421317386aa8e79e8728353d9000000000000000000000000b43b2cccceada5292732a8c58ae134adefce09bb00000000000000000000000073846272813065c3e4efdb3fb82e0d128c8c236400000000000000000000000000000000000000000000000018a6deca334953f7000000000000000000000000000000000000000000000000000003a35294400000000000000000000000000000000000000000000000000000000000000000e00000000000000000000000000000000000000000000000000000000000000000000000000000000000000000000000000000000000000000000000000000004136ddba6acaaf5852f298e4cccf745b629956985f8b86cfe9b442a321e444fc1d17c3e0fec1286fef7c16b92c6a3599a0683000db95d75da02439794a2e44b9011c00000000000000000000000000000000000000000000000000000000000000"
      ],
      "transaction": {
        "from": "0xd370ee7a865779d252f65c7455592f9f7d6f9a99",
        "to": "0x73846272813065c3e4efdb3fb82e0d128c8c2364",
        "gas": "0x8ba19",
        "value": "0x0",
        "input": "0xb15d2a2c000000000000000000000000b43b2cccceada5292732a8c58ae134adefce09bb00000000000000000000000000000000000000000000000000000000000000000000000000000000000000000000000000000000000000000000000000000060000000000000000000000000000000000000000000000000000000000000020000000000000000000000000000000000000000000000000000000000000000400000000000000000000000000000000000000000000000000000000000000000000000000000000000000000000000000000000000000000000000000000004000000000000000000000000000000000000000000000000000000000000001409c901c08bbcbee383e781487674d7123e150e7e1b78b521db6d4a71066607f460000000000000000000000007d14ae5f20cc2f6421317386aa8e79e8728353d9000000000000000000000000b43b2cccceada5292732a8c58ae134adefce09bb00000000000000000000000073846272813065c3e4efdb3fb82e0d128c8c236400000000000000000000000000000000000000000000000018a6deca334953f7000000000000000000000000000000000000000000000000000003a35294400000000000000000000000000000000000000000000000000000000000000000e00000000000000000000000000000000000000000000000000000000000000000000000000000000000000000000000000000000000000000000000000000004136ddba6acaaf5852f298e4cccf745b629956985f8b86cfe9b442a321e444fc1d17c3e0fec1286fef7c16b92c6a3599a0683000db95d75da02439794a2e44b9011c00000000000000000000000000000000000000000000000000000000000000",
        "nonce": "0x3",
        "chainId": "0xa4b1"
      },
      "additionalContracts": [],
      "isFixedGasLimit": false
    }
  ],
  "receipts": [],
  "libraries": [],
  "pending": [],
  "returns": {},
  "timestamp": 1776355403197,
  "chain": 42161,
  "commit": "d8fb321"
}