{
  "transactions": [
    {
      "hash": "0x2802462ef4b15d16e3aa471ea266185ccaa4cd08ef969906640aa96b7524b266",
      "transactionType": "CREATE",
      "contractName": "RPCDataService",
      "contractAddress": "0xa983b18b8291f0c317ba4fe0dc0f7cc9373af078",
      "function": null,
      "arguments": [
        "0x7dfb2175a77e922f060bc0a59f83Be6d2f4b85d4",
        "0x0a8491544221dd212964fbb96487467291b2C97e",
        "0x8f69F5C07477Ac46FBc491B1E6D91E2bb0111A9e",
        "0x7dfb2175a77e922f060bc0a59f83Be6d2f4b85d4"
      ],
      "transaction": {
        "from": "0x7dfb2175a77e922f060bc0a59f83be6d2f4b85d4",
        "gas": "0x3ac3e1",
        "value": "0x0",
        "input": "0x6101e080604052346105d6576080816132ef803803809161002082856105da565b8339810103126105d65761003381610611565b9061004060208201610611565b610058606061005160408501610611565b9301610611565b926001600160a01b03169081156105c3575f80546001600160a01b031981168417825560405193916001600160a01b03909116907f8be0079c531659141344cd1fd0a4f28419497f9722a3daafe3b4186f6b6457e09080a36001600160a01b03169081156105935750610100526040516100d36040826105da565b600a81526923b930b8342a37b5b2b760b11b60208201526001600160a01b03906100fc90610625565b1660805260405161010e6040826105da565b60078152665374616b696e6760c81b60208201526001600160a01b039061013490610625565b1660a0526040516101466040826105da565b600d81526c47726170685061796d656e747360981b60208201526001600160a01b039061017290610625565b1660c0526040516101846040826105da565b600e81526d5061796d656e7473457363726f7760901b60208201526001600160a01b03906101b190610625565b1660e0526040516101c36040826105da565b600c81526b22b837b1b426b0b730b3b2b960a11b60208201526001600160a01b03906101ee90610625565b16610120526040516102016040826105da565b600e81526d2932bbb0b93239a6b0b730b3b2b960911b60208201526001600160a01b039061022e90610625565b16610140526040516102416040826105da565b60118152704772617068546f6b656e4761746577617960781b60208201526001600160a01b039061027190610625565b16610160526040516102846040826105da565b600f81526e23b930b834283937bc3ca0b236b4b760891b60208201526001600160a01b03906102b290610625565b16610180526040516102c56040826105da565b600881526721bab930ba34b7b760c11b60208201526001600160a01b03906102ec90610625565b166101a08190526080805160a0805160c0805160e080516101005161012051610140516101605161018051604080516001600160a01b03998a1681529689166020880152938816938601939093529086166060850152851699830199909952978316958101959095529184019690965293851694908116939216917fef5021414834d86e36470f5c1cecf6544fb2bb723f2ca51a4c86fcd8c5919a4391a46001600160a01b03166101c05260a280546001600160401b0319166212750017905569021e19e0c9bab240000060018190555f1960028190556040805192835260208301919091527f90699b8b4bf48918fea1129c85f9bc7b51285df7ecc982910813c7805f56884991a1600354604080516212750081526001600160401b0360208201527f2867e04c500e438761486b78021d4f9eb97c77ff45d10c1183f5583ba4cbf7d19190a16001600160c01b031916760f424000000000ffffffffffffffff000000000012750017600355604080515f8152620f424060208201527f2fe5a7039987697813605cc0b9d6db7aab575408e3fc59e8a457bef8d7bc0a369190a16001600160a01b03165f818152609d602052604090205460ff1661057c57805f52609d60205260405f20600160ff198254161790557fa95bac2f3df0d40e8278281c1d39d53c60e4f2bf3550ca5665738d0916e89789602060405160018152a2604051612beb9081610704823960805181505060a05181818161032d015281816103d9015281816106da01528181610c6a015281816110bc01528181611783015281816122b2015261284e015260c05181505060e05181505061010051815050610120518150506101405181505061016051815050610180518150506101a0518150506101c05181610bdc0152f35b635e67e54b60e01b5f52600452600160245260445ffd5b63218f5add60e11b815260206004820152600a60248201526921b7b73a3937b63632b960b11b6044820152606490fd5b631e4fbdf760e01b5f525f60045260245ffd5b5f80fd5b601f909101601f19168101906001600160401b038211908210176105fd57604052565b634e487b7160e01b5f52604160045260245ffd5b51906001600160a01b03821682036105d657565b6101005181516020808401918220604051637bb20d2f60e11b81526004810191909152939192849060249082906001600160a01b03165afa9283156106f8575f936106bc575b506001600160a01b0383161561068057505090565b60449060405192839163218f5add60e11b8352602060048401525180918160248501528484015e5f828201840152601f01601f19168101030190fd5b9092506020813d6020116106f0575b816106d8602093836105da565b810103126105d6576106e990610611565b915f61066b565b3d91506106cb565b6040513d5f823e3d90fdfe6080806040526004361015610012575f80fd5b5f905f3560e01c90816307e736d814611c425750806313c474c914611be857806316049e9c146119db5780631ebb7c30146119b557806324b8fbf61461174757806333136202146116b257806335577962146116005780633f4ba83a1461158157806345f54485146113d8578063482468b714611395578063548d496f1461135c5780635c975abb146113375780635d21ef26146112535780636ccec5b8146111ab578063715018a61461115157806371ce020a146111095780638180083b14611087578063819ba366146110625780638456cb5914610ff057806388d4baff14610fcb5780638a25ac2314610f815780638da5cb5b14610f5a5780639384e07814610f1b578063a55f304914610efd578063b15d2a2c146107b8578063b3975736146106a5578063b57224511461067e578063b998328314610652578063c3c5a54714610295578063cb8347fe14610602578063cbe5f3f2146105c9578063cbf50bb614610571578063ce0fc0cc146103b8578063dedf6726146102f0578063e52e697b146102d4578063e7747ccb14610295578063eff0f592146102485763f2fde38b146101c0575f80fd5b34610245576020366003190112610245576101d9611c81565b6101e16127a7565b6001600160a01b031680156102315781546001600160a01b03198116821783556001600160a01b03167f8be0079c531659141344cd1fd0a4f28419497f9722a3daafe3b4186f6b6457e08380a380f35b631e4fbdf760e01b82526004829052602482fd5b80fd5b503461024557602036600319011261024557604060809160043581526069602052208054906001810154906003600282015491015491604051938452602084015260408301526060820152f35b50346102455760203660031901126102455760209060ff906040906001600160a01b036102c0611c81565b168152609f84522054166040519015158152f35b5034610245578060031936011261024557602060405160058152f35b5034610245576102ff36611d1d565b9061030861278a565b604051637c145cc760e01b8152926020848061032933308660048501611e43565b03817f00000000000000000000000000000000000000000000000000000000000000006001600160a01b03165afa9384156103ad5761037b9461037691879161037e575b50823391611e66565b6121f7565b80f35b6103a0915060203d6020116103a6575b6103988183611dc6565b810190611e2b565b5f61036d565b503d61038e565b6040513d87823e3d90fd5b503461024557806103c836611d1d565b5050604051637c145cc760e01b81527f00000000000000000000000000000000000000000000000000000000000000006001600160a01b0316916020828061041533308660048501611e43565b0381865afa918215610566576104a99261043891869161037e5750823391611e66565b61050760c0610446836127cd565b6003546001600160401b038082169160401c1688969196506001600160401b0360e084015116966040976001600160401b03808a51946104868c87611dc6565b600d86526c1d1a185dda5b99d4195c9a5bd9609a1b602087015216921690612b14565b63ffffffff6104c86003549063ffffffff808360801c169260a01c1690565b93909201511663ffffffff80808851956104e28a88611dc6565b600e87526d1b585e15995c9a599a595c90dd5d60921b60208801521693169116612b14565b823b15610561578151631d3c5b9960e11b81526001600160a01b0390911660048201529183908390602490829084905af190811561055857506105475750f35b8161055191611dc6565b6102455780f35b513d84823e3d90fd5b505050fd5b6040513d86823e3d90fd5b50346102455760203660031901126102455760043561058e6127a7565b808252609e60205260408220805460ff191690557f11a9d1a77f76361ed131c19b1dc5758504c51dbde2e49fc973a0ef9577ad13d58280a280f35b5034610245576020366003190112610245576020906040906001600160a01b036105f1611c81565b168152606883522054604051908152f35b50346102455761061136611d1d565b505060405162461bcd60e51b81526020600482015260166024820152751cdb185cda1a5b99c81b9bdd081cdd5c1c1bdc9d195960521b604482015260649150fd5b5034610245576020366003190112610245576020610676610671611c81565b6120b4565b604051908152f35b503461024557806003193601126102455760206001600160401b0360a25416604051908152f35b5034610245576106b436611d1d565b5050604051637c145cc760e01b8152602081806106d633308760048501611e43565b03817f00000000000000000000000000000000000000000000000000000000000000006001600160a01b03165afa80156107ad5761071d91849161037e5750823391611e66565b6001600160a01b038116808352609f602052604083205490919060ff161561079957610748906120b4565b61078757808252609f60205260408220805460ff191690557ff04091b4a187e321a42001e46961e45b6a75b203fc6fb766b7e05505f6080abb8280a280f35b63f868322d60e01b8252600452602490fd5b631196593d60e11b83526004829052602483fd5b6040513d85823e3d90fd5b5034610245576060366003190112610245576107d2611c81565b6024356003811015610ef9576044356001600160401b038111610ef5576107fd903690600401611cf0565b929061080761278a565b82610ee6576001600160a01b038216808652609f602052604086205490949060ff1615610ed257810190604081830312610ece5780356001600160401b038111610eca578101604081840312610eca576040519261086484611d8f565b81356001600160401b038111610eae57820160e081830312610eae576040519060e082018281106001600160401b03821117610eb657604052803582526108ad60208201611c97565b60208301526108be60408201611c97565b60408301526108cf60608201611c97565b60608301526108e060808201611d60565b608083015260a08101356001600160801b0381168103610eb25760a083015260c0810135906001600160401b038211610eb25761091f91849101611e93565b60c0820152845260208201356001600160401b038111610eae576109439201611e93565b602083019081528251604001519093906001600160a01b0316868103610e975750858752606a60205260408720926040518860208201528760408201526040815261098f606082611dc6565b9660038501958654978a989987545b80151580610e8e575b15610e7c57816109b6916128ec565b9190610a71575090885415610a62578b600360408a54928381526069602052200154908d5260696020528c600360408220828155826001820155826002820155015589545f198101908111610a4e57808b55818a5515610a43575b9a8015610a2f575f190199610a25906120a6565b999a91909161099e565b634e487b7160e01b8d52601160045260248dfd5b8c60018a0155610a11565b634e487b7160e01b8e52601160045260248efd5b63ddaf8f2160e01b8c5260048cfd5b96949a505093999791965094505b60208451948180820196879201010312610e6557610bcf97602095877f13f3fa9f0e54af1af76d8b5d11c3973d7c2aed6312b61efff2f7b49d73ad67eb6040610ba69560c0995182519182528b820152a287895260a08752610b8c60018060a01b0360408b20541691610b7960405198899560608c880152516040608088015280518288015260018060a01b038c8201511660e088015260018060a01b0360408201511661010088015260018060a01b036060820151166101208801526001600160401b036080820151166101408801526001600160801b0360a082015116610160880152015160e06101808701526101a0860190611ccc565b9051848203607f190160a0860152611ccc565b90896040840152606083015203601f198101855284611dc6565b83604051978894859463349104e760e11b86526004860152606060248601526064850190611ccc565b91013560448301520381857f00000000000000000000000000000000000000000000000000000000000000006001600160a01b03165af1928315610e71578293610e39575b508215938415610c2a575b602084604051908152f35b60058402948486046005141715610e2557610c506001600160401b0360a2541642612085565b908515610e1657610c8e63ffffffff60035460c01c1687837f0000000000000000000000000000000000000000000000000000000000000000612a3e565b828452606a60205260408420600281019182546040519060208201923060601b84526bffffffffffffffffffffffff199060601b166034830152604882015260488152610cdc606882611dc6565b51902094604051610cec81611d74565b8881526003602082014281526040830187815260608401918583528a8652606960205260408620945185555160018501555160028401555191015560038201918254610dfc575b825493612710851015610ded578715610dde5787600183015580549060018201809211610dca575586908415610dc2575b505060018301809311610dae5750957f5d9e2c5278e41138269f5f980cfbea016d8c59816754502abc4d2f87aaea987f9260409260209855825191825287820152a35f8080610c1f565b634e487b7160e01b81526011600452602490fd5b55855f610d64565b634e487b7160e01b84526011600452602484fd5b638f4a893d60e01b8352600483fd5b6303a8c56b60e61b8352600483fd5b600181015482526069602052866003604084200155610d33565b638f4c63d960e01b8452600484fd5b634e487b7160e01b83526011600452602483fd5b9092506020813d602011610e69575b81610e5560209383611dc6565b81010312610e655751915f610c14565b5f80fd5b3d9150610e48565b6040513d84823e3d90fd5b50959399509399979196509450610a7f565b508b15156109a7565b63e9875b2360e01b88526004879052602452604487fd5b8880fd5b8a80fd5b634e487b7160e01b8b52604160045260248bfd5b8680fd5b8580fd5b631196593d60e11b86526004859052602486fd5b630e5525c360e31b8552600485fd5b8380fd5b8280fd5b50346102455780600319360112610245576020604051621275008152f35b50346102455760203660031901126102455760209060ff906040906001600160a01b03610f46611c81565b168152609d84522054166040519015158152f35b5034610245578060031936011261024557546040516001600160a01b039091168152602090f35b503461024557602036600319011261024557610f9b6127a7565b807f1e37627b4601dccb350d9e7777d66e0de14589ca12f6131794359ab36397e90960206040516004358152a280f35b5034610245578060031936011261024557602060405169021e19e0c9bab24000008152f35b5034610245578060031936011261024557338152609d60205261101a3360ff604084205416611ee6565b61102261278a565b805460ff60a01b1916600160a01b1781556040513381527f62e78cea01bee320cd4e420270b5ea74000d11b0c9f74754ebdbfc544b05a25890602090a180f35b5034610245578060031936011261024557604060015460025482519182526020820152f35b50346102455761109636611d1d565b9060405192637c145cc760e01b8452602084806110b833308660048501611e43565b03817f00000000000000000000000000000000000000000000000000000000000000006001600160a01b03165afa9384156103ad5761037b9461110491879161037e5750823391611e66565b611f49565b50346102455780600319360112610245576040906001600160401b0380611140600354906001600160401b038083169260401c1690565b919085519450168352166020820152f35b503461024557806003193601126102455761116a6127a7565b80546001600160a01b03198116825581906001600160a01b03167f8be0079c531659141344cd1fd0a4f28419497f9722a3daafe3b4186f6b6457e08280a380f35b5034610245576020366003190112610245576111c5611c81565b338252609f60205260ff60408320541615611240576001600160a01b03811661123b5750335b3380835260a06020526040832080546001600160a01b0319166001600160a01b039390931692831790557e3215dc05a2fc4e6a1e2c2776311d207c730ee51085aae221acc5cbe6fb55c18380a380f35b6111eb565b631196593d60e11b825233600452602482fd5b5034610245576040366003190112610245576004356024356112736127a7565b801580156113315769021e19e0c9bab24000005b60016040519161129683611d8f565b81835260208301908152858752609e6020526112c56040882093511515849060ff801983541691151516179055565b519101551561130857507f1e37627b4601dccb350d9e7777d66e0de14589ca12f6131794359ab36397e909602069021e19e0c9bab24000005b604051908152a280f35b60207f1e37627b4601dccb350d9e7777d66e0de14589ca12f6131794359ab36397e909916112fe565b81611287565b503461024557806003193601126102455760ff6020915460a01c166040519015158152f35b503461024557602036600319011261024557604080916004358152609e60205220600160ff825416910154825191151582526020820152f35b5034610245578060031936011261024557604063ffffffff6113c76003549063ffffffff808360801c169260a01c1690565b835191831682529091166020820152f35b503461024557602036600319011261024557600435338252606a6020526040822060405183602082015233604082015260408152611417606082611dc6565b90600381019081548085116115725785948061156857509392935b9381545b8015158061155f575b15611554578161144e916128ec565b919061150457508254156114f557815480875260696020526003604088200154908752606960205286600360408220828155826001820155826002820155015583545f1981019081116114e157808555818455156114d6575b9480156114c2575f1901936114bb906120a6565b9394611436565b634e487b7160e01b87526011600452602487fd5b8660018401556114a7565b634e487b7160e01b88526011600452602488fd5b63ddaf8f2160e01b8652600486fd5b9394505050505b60208151918180820193849201010312610e65575160405191825260208201527f13f3fa9f0e54af1af76d8b5d11c3973d7c2aed6312b61efff2f7b49d73ad67eb60403392a280f35b50929350505061150b565b5085151561143f565b9050939293611432565b634a411b9d60e11b8652600486fd5b5034610245578060031936011261024557338152609d6020526115ab3360ff604084205416611ee6565b805460ff8160a01c16156115f15760ff60a01b191681556040513381527f5db9ee0a495bf2e6ff9c91a7834c1ba4fdd244a5e8aa4e537bd38aeae4b073aa90602090a180f35b638dfc202b60e01b8252600482fd5b50346102455760403660031901126102455761161a611c81565b602435908115918215918282036116ae576116336127a7565b60018060a01b031692838552609d60205260ff604086205416151503611697577fa95bac2f3df0d40e8278281c1d39d53c60e4f2bf3550ca5665738d0916e89789916112fe602092858752609d8452604087209060ff801983541691151516179055565b5060449291635e67e54b60e01b8352600452602452fd5b8480fd5b5034610245576020366003190112610245576004356001600160401b038116809103611743576116e06127a7565b62127500811061172a576020817fc50cf305bc684b6858aefa0a5f7d8d06101eae075f44277e626112f229dde3bf926001600160401b031960a254161760a255604051908152a180f35b63012c30ef60e31b825262127500600452602452604490fd5b5080fd5b34610e655761175536611d1d565b919061175f61278a565b604051637c145cc760e01b81526020818061177f33308860048501611e43565b03817f00000000000000000000000000000000000000000000000000000000000000006001600160a01b03165afa80156119aa576117c7915f9161198b575b50833391611e66565b6001600160a01b0382165f818152609f602052604090205490939060ff16611978576118026117f5846127cd565b60208151910151906128df565b906118356001549260025460409485519261181d8785611dc6565b6006845265746f6b656e7360d01b6020850152612b14565b61187f6060611843866127cd565b6003546104a9906001600160401b038082169160401c16906001600160401b036080850151166001600160401b03808a51946104868c87611dc6565b820191606081840312610e655780356001600160401b038111610e6557836118a8918301611e93565b9260208201356001600160401b038111610e655783916118c9918401611e93565b9101359060018060a01b038216809203610e65575f868152609f602052839020805460ff191660011790557f6b1aa1e318762b7b04f60cd1d318222049b2c70c1c7daad0af5276d5f3b2525a9461196c928061197157505b865f5260a0602052835f209060018060a01b03166bffffffffffffffffffffffff60a01b82541617905561195e8351948486958652850190611ccc565b908382036020850152611ccc565b0390a2005b9050611921565b83633a7bc11560e11b5f5260045260245ffd5b6119a4915060203d6020116103a6576103988183611dc6565b856117be565b6040513d5f823e3d90fd5b34610e65575f366003190112610e6557602063ffffffff60035460c01c16604051908152f35b34610e65576020366003190112610e65576001600160a01b036119fc611c81565b165f5260a160205260405f208054906001600160401b038211611bd45760405191611a2d60208260051b0184611dc6565b808352602083019081925f5260205f205f925b828410611ae757848660405191829160208301906020845251809152604083019060408160051b85010192915f905b828210611a7e57505050500390f35b919360019193955060208091603f198982030185528751906001600160401b038251168152611ab38383015184830190611cab565b606080611acf6040850151608060408601526080850190611ccc565b93015115159101529601920192018594939192611a6f565b604051611af381611d74565b611b1360ff84546001600160401b038116845260401c1660208301611de7565b6040516001840180545f91611b2782611df3565b8085529160018116908115611baf5750600114611b78575b50509260039282611b566020946001970382611dc6565b604082015260ff60028701541615156060820152815201920193019290611a40565b5f908152602081209092505b818310611b9957505081016020018282611b3f565b6001816020925483868801015201920191611b84565b60ff191660208087019190915292151560051b85019092019250849150839050611b3f565b634e487b7160e01b5f52604160045260245ffd5b34610e65576020366003190112610e65576001600160a01b03611c09611c81565b165f52606a602052608060405f208054906001810154906003600282015491015491604051938452602084015260408301526060820152f35b34610e65576020366003190112610e65576020906001600160a01b03611c66611c81565b165f90815260a0835260409020546001600160a01b03168152f35b600435906001600160a01b0382168203610e6557565b35906001600160a01b0382168203610e6557565b906004821015611cb85752565b634e487b7160e01b5f52602160045260245ffd5b805180835260209291819084018484015e5f828201840152601f01601f1916010190565b9181601f84011215610e65578235916001600160401b038311610e655760208381860195010111610e6557565b906040600319830112610e65576004356001600160a01b0381168103610e655791602435906001600160401b038211610e6557611d5c91600401611cf0565b9091565b35906001600160401b0382168203610e6557565b608081019081106001600160401b03821117611bd457604052565b604081019081106001600160401b03821117611bd457604052565b61014081019081106001600160401b03821117611bd457604052565b90601f801991011681019081106001600160401b03821117611bd457604052565b6004821015611cb85752565b90600182811c92168015611e21575b6020831014611e0d57565b634e487b7160e01b5f52602260045260245ffd5b91607f1691611e02565b90816020910312610e6557518015158103610e655790565b6001600160a01b0391821681529181166020830152909116604082015260600190565b15611e6f575050565b63cc5d3c8b60e01b5f9081526001600160a01b039182166004529116602452604490fd5b81601f82011215610e65576020813591016001600160401b038211611bd45760405192611eca601f8401601f191660200185611dc6565b82845282820111610e6557815f92602092838601378301015290565b15611eee5750565b6372e3ef9760e01b5f9081526001600160a01b0391909116600452602490fd5b359060ff82168203610e6557565b8054821015611f35575f52600360205f20910201905f90565b634e487b7160e01b5f52603260045260245ffd5b90918260409181010312610e655790611f6d6020611f6683611d60565b9201611f0e565b9160018060a01b0316805f5260a160205260405f20926001600160401b035f9316925b845481101561205d57836001600160401b03611fac8388611f1c565b5054161480612037575b8061201f575b611fc857600101611f90565b611fd860029160ff949596611f1c565b500182198154169055166004811015611cb85760207f89369fc9c40b2df486c99a1564dc6ad8bb4668aebf40a8ea71e20b45626e44269161201c6040518092611cab565ba3565b5060ff600261202e8388611f1c565b50015416611fbc565b5060ff6120448287611f1c565b505460401c166004811015611cb85760ff831614611fb6565b5060ff839116916004831015611cb85763803b450b60e01b5f5260045260245260445260645ffd5b9190820180921161209257565b634e487b7160e01b5f52601160045260245ffd5b5f1981146120925760010190565b6001600160a01b03165f90815260a160205260408120805491929190835b8281106120de57505050565b60ff60026120ec8385611f1c565b500154166120fd575b6001016120d2565b936121096001916120a6565b9490506120f5565b519063ffffffff82168203610e6557565b51906001600160401b0382168203610e6557565b9081610140910312610e65576101206040519161215283611daa565b80518352602081015160208401526040810151604084015261217660608201612111565b606084015261218760808201612122565b608084015261219860a08201612122565b60a08401526121a960c08201612111565b60c08401526121ba60e08201612122565b60e0840152610100810151610100840152015161012082015290565b806121e76040926121f49594611cab565b8160208201520190611ccc565b90565b6001600160a01b0381165f818152609f602052604090205492949093909260ff161561277757840192606085850312610e655761223385611d60565b9361224060208701611f0e565b956040810135916001600160401b038311610e65576001600160401b03926122689201611e93565b941691825f52609e60205260405f209060ff82541615612764576040516312ecc4bf60e11b81526001600160a01b03909116600482015230602482015261014081806044810103817f00000000000000000000000000000000000000000000000000000000000000006001600160a01b03165afa80156119aa576001915f91612735575b5051910154808210612720575050805f5260a160205260405f20935f5b85548110156124d757836001600160401b036123258389611f1c565b50541614806124b1575b61233b57600101612309565b80866002612352612363946001969798999a611f1c565b5001805460ff191685179055611f1c565b5001948151956001600160401b038711611bd4576123818154611df3565b601f811161246c575b50602096601f8111600114612407578060ff94959697985f916123fc575b508160011b915f199060031b1c19161790555b16906004821015611cb8577fc1224e13efef3ce78e715155ae555a721a806d82ea1122656f567b46d207cd71916123f7604051928392836121d6565b0390a3565b90508501515f6123a8565b601f198116825f52885f20905f5b81811061245457509060ff959697989983600194931061243c575b5050811b0190556123bb565b8701515f1960f88460031b161c191690555f80612430565b868b0151835560209a8b019a60019093019201612415565b815f5260205f20601f890160051c81019160208a106124a7575b601f0160051c01905b81811061249c575061238a565b5f815560010161248f565b9091508190612486565b5060ff6124be8288611f1c565b505460401c166004811015611cb85760ff88161461232f565b50919390929460ff16906004821015611cb857604051906124f782611d74565b858252602082016125088482611de7565b6040830190858252606084019260018452805468010000000000000000811015611bd45761253b91600182018155611f1c565b94909461270d576001600160401b039051166001600160401b0319855416178455516004811015611cb857835468ff0000000000000000191660409190911b68ff00000000000000001617835551805160018401916001600160401b038211611bd4576125a88354611df3565b601f81116126c8575b50602090601f831160011461263a57928260029361262096937fc1224e13efef3ce78e715155ae555a721a806d82ea1122656f567b46d207cd719a9998965f9261262f575b50508160011b915f199060031b1c19161790555b51151591019060ff801983541691151516179055565b6123f7604051928392836121d6565b015190505f806125f6565b90601f19831691845f52815f20925f5b8181106126b057509361262096937fc1224e13efef3ce78e715155ae555a721a806d82ea1122656f567b46d207cd719a999896936001938360029810612698575b505050811b01905561260a565b01515f1960f88460031b161c191690555f808061268b565b9293602060018192878601518155019501930161264a565b835f5260205f20601f840160051c81019160208510612703575b601f0160051c01905b8181106126f857506125b1565b5f81556001016126eb565b90915081906126e2565b634e487b7160e01b5f525f60045260245ffd5b6307f850b160e21b5f5260045260245260445ffd5b61275791506101403d811161275d575b61274f8183611dc6565b810190612136565b5f6122ec565b503d612745565b8363264e42cf60e01b5f5260045260245ffd5b83631196593d60e11b5f5260045260245ffd5b60ff5f5460a01c1661279857565b63d93c066560e01b5f5260045ffd5b5f546001600160a01b031633036127ba57565b63118cdaa760e01b5f523360045260245ffd5b5f6101206040516127dd81611daa565b828152602081018390526040808201849052606082018490526080820184905260a0820184905260c0820184905260e082018490526101008201849052910191909152516312ecc4bf60e11b81526001600160a01b03821660048201523060248201529061014082806044810103817f00000000000000000000000000000000000000000000000000000000000000006001600160a01b03165afa9182156119aa575f926128be575b506001600160401b0360a0830151161561289e575090565b637b3c09bf60e01b5f9081526001600160a01b0391909116600452602490fd5b6128d89192506101403d811161275d5761274f8183611dc6565b905f612886565b9190820391821161209257565b91905f60606040516128fd81611d74565b8281528260208201528260408201520152825f52606960205260405f209060405161292781611d74565b8254815260018301548060208301526003600285015494604084019586520154606083015215612a0d57825142106129f057604082805181010312610e655760208201516040909201516001600160a01b0381169590869003610e6557857f4c06b68820628a39c787d2db1faa0eeacd7b9474847b198b1e871fe6e5b93f4460406129cd966129b7865185612b6f565b8551905182519182526020820152a35190612085565b916040519260208401526040830152604082526129eb606083611dc6565b5f9190565b505050905060405190612a04602083611dc6565b5f825260019190565b8463107349a960e21b5f5260045260245ffd5b15612a29575050565b635f8ec70960e01b5f5260045260245260445ffd5b909291928315612b0e5760018060a01b031691825f526068602052602063ffffffff6064612a708760405f2054612085565b60405163872d048960e01b815260048101889052306024820152929094166044830152909384919082906001600160a01b03165afa80156119aa575f90612ada575b612ac0925080821115612a20565b5f526068602052612ad660405f20918254612085565b9055565b506020823d602011612b06575b81612af460209383611dc6565b81010312610e6557612ac09151612ab2565b3d9150612ae7565b50505050565b91908083101580612b65575b15612b2b5750505050565b604051630871e13d60e01b81526080600482015294508493612b51906084860190611ccc565b926024850152604484015260648301520390fd5b5081831115612b20565b8115612bb1576001600160a01b03165f81815260686020526040902054612b9b90839081811015612a20565b5f526068602052612ad660405f209182546128df565b505056fea2646970667358221220dceeb5400c85c05b5d31821d3d6ee50d23c5c730b28518d2872cf64024a6e28964736f6c634300081b00330000000000000000000000007dfb2175a77e922f060bc0a59f83be6d2f4b85d40000000000000000000000000a8491544221dd212964fbb96487467291b2c97e0000000000000000000000008f69f5c07477ac46fbc491b1e6d91e2bb0111a9e0000000000000000000000007dfb2175a77e922f060bc0a59f83be6d2f4b85d4",
        "nonce": "0x29",
        "chainId": "0xa4b1"
      },
      "additionalContracts": [],
      "isFixedGasLimit": false
    },
    {
      "hash": "0x9529ababdef01d44099ce4bde42f8f4be8d2bb3b0625d45ca3829663068ead98",
      "transactionType": "CALL",
      "contractName": "RPCDataService",
      "contractAddress": "0xa983b18b8291f0c317ba4fe0dc0f7cc9373af078",
      "function": "addChain(uint256,uint256)",
      "arguments": [
        "1",
        "0"
      ],
      "transaction": {
        "from": "0x7dfb2175a77e922f060bc0a59f83be6d2f4b85d4",
        "to": "0xa983b18b8291f0c317ba4fe0dc0f7cc9373af078",
        "gas": "0x8e0c",
        "value": "0x0",
        "input": "0x5d21ef2600000000000000000000000000000000000000000000000000000000000000010000000000000000000000000000000000000000000000000000000000000000",
        "nonce": "0x2a",
        "chainId": "0xa4b1"
      },
      "additionalContracts": [],
      "isFixedGasLimit": false
    },
    {
      "hash": "0x3f6a757e7ecbdc80039798cfbaf6ba2cba1997013fe5248e577f83c408fd5203",
      "transactionType": "CALL",
      "contractName": "RPCDataService",
      "contractAddress": "0xa983b18b8291f0c317ba4fe0dc0f7cc9373af078",
      "function": "addChain(uint256,uint256)",
      "arguments": [
        "42161",
        "0"
      ],
      "transaction": {
        "from": "0x7dfb2175a77e922f060bc0a59f83be6d2f4b85d4",
        "to": "0xa983b18b8291f0c317ba4fe0dc0f7cc9373af078",
        "gas": "0x8e1c",
        "value": "0x0",
        "input": "0x5d21ef26000000000000000000000000000000000000000000000000000000000000a4b10000000000000000000000000000000000000000000000000000000000000000",
        "nonce": "0x2b",
        "chainId": "0xa4b1"
      },
      "additionalContracts": [],
      "isFixedGasLimit": false
    },
    {
      "hash": "0x9a25315d15499291dd6693ac97256831e5d57e3a8afab955b2685e4c1b998d04",
      "transactionType": "CALL",
      "contractName": "RPCDataService",
      "contractAddress": "0xa983b18b8291f0c317ba4fe0dc0f7cc9373af078",
      "function": "addChain(uint256,uint256)",
      "arguments": [
        "10",
        "0"
      ],
      "transaction": {
        "from": "0x7dfb2175a77e922f060bc0a59f83be6d2f4b85d4",
        "to": "0xa983b18b8291f0c317ba4fe0dc0f7cc9373af078",
        "gas": "0x8e0c",
        "value": "0x0",
        "input": "0x5d21ef26000000000000000000000000000000000000000000000000000000000000000a0000000000000000000000000000000000000000000000000000000000000000",
        "nonce": "0x2c",
        "chainId": "0xa4b1"
      },
      "additionalContracts": [],
      "isFixedGasLimit": false
    },
    {
      "hash": "0x83ef88710f4c83b8fa2b6c371914d745e81942fa47fc3f10d5abb87e95ff44d0",
      "transactionType": "CALL",
      "contractName": "RPCDataService",
      "contractAddress": "0xa983b18b8291f0c317ba4fe0dc0f7cc9373af078",
      "function": "addChain(uint256,uint256)",
      "arguments": [
        "8453",
        "0"
      ],
      "transaction": {
        "from": "0x7dfb2175a77e922f060bc0a59f83be6d2f4b85d4",
        "to": "0xa983b18b8291f0c317ba4fe0dc0f7cc9373af078",
        "gas": "0x8e1c",
        "value": "0x0",
        "input": "0x5d21ef2600000000000000000000000000000000000000000000000000000000000021050000000000000000000000000000000000000000000000000000000000000000",
        "nonce": "0x2d",
        "chainId": "0xa4b1"
      },
      "additionalContracts": [],
      "isFixedGasLimit": false
    },
    {
      "hash": "0x6331878cb2782ad4e0f94c7e9825864f640dbc8161094ec4bdf149c62341b0f5",
      "transactionType": "CALL",
      "contractName": "RPCDataService",
      "contractAddress": "0xa983b18b8291f0c317ba4fe0dc0f7cc9373af078",
      "function": "addChain(uint256,uint256)",
      "arguments": [
        "137",
        "0"
      ],
      "transaction": {
        "from": "0x7dfb2175a77e922f060bc0a59f83be6d2f4b85d4",
        "to": "0xa983b18b8291f0c317ba4fe0dc0f7cc9373af078",
        "gas": "0x8e0c",
        "value": "0x0",
        "input": "0x5d21ef2600000000000000000000000000000000000000000000000000000000000000890000000000000000000000000000000000000000000000000000000000000000",
        "nonce": "0x2e",
        "chainId": "0xa4b1"
      },
      "additionalContracts": [],
      "isFixedGasLimit": false
    },
    {
      "hash": "0x11006419b2c7201dc55f7ea9ecdc7f17238a289c0b114e1d138ed937da1de096",
      "transactionType": "CALL",
      "contractName": "RPCDataService",
      "contractAddress": "0xa983b18b8291f0c317ba4fe0dc0f7cc9373af078",
      "function": "addChain(uint256,uint256)",
      "arguments": [
        "56",
        "0"
      ],
      "transaction": {
        "from": "0x7dfb2175a77e922f060bc0a59f83be6d2f4b85d4",
        "to": "0xa983b18b8291f0c317ba4fe0dc0f7cc9373af078",
        "gas": "0x8e0c",
        "value": "0x0",
        "input": "0x5d21ef2600000000000000000000000000000000000000000000000000000000000000380000000000000000000000000000000000000000000000000000000000000000",
        "nonce": "0x2f",
        "chainId": "0xa4b1"
      },
      "additionalContracts": [],
      "isFixedGasLimit": false
    },
    {
      "hash": "0x482c6450907949753e1eb8c1066f8a174ee30de9bd0c921816289e4b9d4266d2",
      "transactionType": "CALL",
      "contractName": "RPCDataService",
      "contractAddress": "0xa983b18b8291f0c317ba4fe0dc0f7cc9373af078",
      "function": "addChain(uint256,uint256)",
      "arguments": [
        "43114",
        "0"
      ],
      "transaction": {
        "from": "0x7dfb2175a77e922f060bc0a59f83be6d2f4b85d4",
        "to": "0xa983b18b8291f0c317ba4fe0dc0f7cc9373af078",
        "gas": "0x8e1c",
        "value": "0x0",
        "input": "0x5d21ef26000000000000000000000000000000000000000000000000000000000000a86a0000000000000000000000000000000000000000000000000000000000000000",
        "nonce": "0x30",
        "chainId": "0xa4b1"
      },
      "additionalContracts": [],
      "isFixedGasLimit": false
    },
    {
      "hash": "0xf778f58ec996c368ffe0ec5f149598b98a1a11b64775f416b996b32b83bbffea",
      "transactionType": "CALL",
      "contractName": "RPCDataService",
      "contractAddress": "0xa983b18b8291f0c317ba4fe0dc0f7cc9373af078",
      "function": "addChain(uint256,uint256)",
      "arguments": [
        "324",
        "0"
      ],
      "transaction": {
        "from": "0x7dfb2175a77e922f060bc0a59f83be6d2f4b85d4",
        "to": "0xa983b18b8291f0c317ba4fe0dc0f7cc9373af078",
        "gas": "0x8e1c",
        "value": "0x0",
        "input": "0x5d21ef2600000000000000000000000000000000000000000000000000000000000001440000000000000000000000000000000000000000000000000000000000000000",
        "nonce": "0x31",
        "chainId": "0xa4b1"
      },
      "additionalContracts": [],
      "isFixedGasLimit": false
    },
    {
      "hash": "0x3f39cd6d48c901c0037cc06f54258d5c7d2ad610a5359c72b883a6529b0914cf",
      "transactionType": "CALL",
      "contractName": "RPCDataService",
      "contractAddress": "0xa983b18b8291f0c317ba4fe0dc0f7cc9373af078",
      "function": "addChain(uint256,uint256)",
      "arguments": [
        "59144",
        "0"
      ],
      "transaction": {
        "from": "0x7dfb2175a77e922f060bc0a59f83be6d2f4b85d4",
        "to": "0xa983b18b8291f0c317ba4fe0dc0f7cc9373af078",
        "gas": "0x8e1c",
        "value": "0x0",
        "input": "0x5d21ef26000000000000000000000000000000000000000000000000000000000000e7080000000000000000000000000000000000000000000000000000000000000000",
        "nonce": "0x32",
        "chainId": "0xa4b1"
      },
      "additionalContracts": [],
      "isFixedGasLimit": false
    },
    {
      "hash": "0xd7cef5f9f4f390d038d70c376b107d5b91f0a49884128ae11472a2a5058dfce2",
      "transactionType": "CALL",
      "contractName": "RPCDataService",
      "contractAddress": "0xa983b18b8291f0c317ba4fe0dc0f7cc9373af078",
      "function": "addChain(uint256,uint256)",
      "arguments": [
        "534352",
        "0"
      ],
      "transaction": {
        "from": "0x7dfb2175a77e922f060bc0a59f83be6d2f4b85d4",
        "to": "0xa983b18b8291f0c317ba4fe0dc0f7cc9373af078",
        "gas": "0x8e2c",
        "value": "0x0",
        "input": "0x5d21ef2600000000000000000000000000000000000000000000000000000000000827500000000000000000000000000000000000000000000000000000000000000000",
        "nonce": "0x33",
        "chainId": "0xa4b1"
      },
      "additionalContracts": [],
      "isFixedGasLimit": false
    }
  ],
  "receipts": [
    {
      "status": "0x1",
      "cumulativeGasUsed": "0x3483fc",
      "logs": [
        {
          "address": "0xa983b18b8291f0c317ba4fe0dc0f7cc9373af078",
          "topics": [
            "0x8be0079c531659141344cd1fd0a4f28419497f9722a3daafe3b4186f6b6457e0",
            "0x0000000000000000000000000000000000000000000000000000000000000000",
            "0x0000000000000000000000007dfb2175a77e922f060bc0a59f83be6d2f4b85d4"
          ],
          "data": "0x",
          "blockHash": "0xb098e036c4342654682326ca1106658ae878d736ae9868f0d77a8ae21672c999",
          "blockNumber": "0x1b20236c",
          "blockTimestamp": "0x69e87c7c",
          "transactionHash": "0x2802462ef4b15d16e3aa471ea266185ccaa4cd08ef969906640aa96b7524b266",
          "transactionIndex": "0x5",
          "logIndex": "0x9",
          "removed": false
        },
        {
          "address": "0xa983b18b8291f0c317ba4fe0dc0f7cc9373af078",
          "topics": [
            "0xef5021414834d86e36470f5c1cecf6544fb2bb723f2ca51a4c86fcd8c5919a43",
            "0x0000000000000000000000009623063377ad1b27544c965ccd7342f7ea7e88c7",
            "0x00000000000000000000000000669a4cf01450b64e8a2a20e9b1fcb71e61ef03",
            "0x0000000000000000000000000a8491544221dd212964fbb96487467291b2c97e"
          ],
          "data": "0x0000000000000000000000007aae8ae011927bc36cb4d0d3e81f2e6e30dae06d000000000000000000000000f6fcc27aaf1fcd8b254498c9794451d82afc673e0000000000000000000000005a843145c43d328b9bb7a4401d94918f131bb281000000000000000000000000971b9d3d0ae3eca029cab5ea1fb0f72c85e6a52500000000000000000000000065e1a5e8946e7e87d9774f5288f41c30a99fd3020000000000000000000000002983936ac20202a6555993448e0d5654ac8ca5fd00000000000000000000000022d78fb4bc72e191c765807f8891b5e1785c8014",
          "blockHash": "0xb098e036c4342654682326ca1106658ae878d736ae9868f0d77a8ae21672c999",
          "blockNumber": "0x1b20236c",
          "blockTimestamp": "0x69e87c7c",
          "transactionHash": "0x2802462ef4b15d16e3aa471ea266185ccaa4cd08ef969906640aa96b7524b266",
          "transactionIndex": "0x5",
          "logIndex": "0xa",
          "removed": false
        },
        {
          "address": "0xa983b18b8291f0c317ba4fe0dc0f7cc9373af078",
          "topics": [
            "0x90699b8b4bf48918fea1129c85f9bc7b51285df7ecc982910813c7805f568849"
          ],
          "data": "0x00000000000000000000000000000000000000000000021e19e0c9bab2400000ffffffffffffffffffffffffffffffffffffffffffffffffffffffffffffffff",
          "blockHash": "0xb098e036c4342654682326ca1106658ae878d736ae9868f0d77a8ae21672c999",
          "blockNumber": "0x1b20236c",
          "blockTimestamp": "0x69e87c7c",
          "transactionHash": "0x2802462ef4b15d16e3aa471ea266185ccaa4cd08ef969906640aa96b7524b266",
          "transactionIndex": "0x5",
          "logIndex": "0xb",
          "removed": false
        },
        {
          "address": "0xa983b18b8291f0c317ba4fe0dc0f7cc9373af078",
          "topics": [
            "0x2867e04c500e438761486b78021d4f9eb97c77ff45d10c1183f5583ba4cbf7d1"
          ],
          "data": "0x0000000000000000000000000000000000000000000000000000000000127500000000000000000000000000000000000000000000000000ffffffffffffffff",
          "blockHash": "0xb098e036c4342654682326ca1106658ae878d736ae9868f0d77a8ae21672c999",
          "blockNumber": "0x1b20236c",
          "blockTimestamp": "0x69e87c7c",
          "transactionHash": "0x2802462ef4b15d16e3aa471ea266185ccaa4cd08ef969906640aa96b7524b266",
          "transactionIndex": "0x5",
          "logIndex": "0xc",
          "removed": false
        },
        {
          "address": "0xa983b18b8291f0c317ba4fe0dc0f7cc9373af078",
          "topics": [
            "0x2fe5a7039987697813605cc0b9d6db7aab575408e3fc59e8a457bef8d7bc0a36"
          ],
          "data": "0x000000000000000000000000000000000000000000000000000000000000000000000000000000000000000000000000000000000000000000000000000f4240",
          "blockHash": "0xb098e036c4342654682326ca1106658ae878d736ae9868f0d77a8ae21672c999",
          "blockNumber": "0x1b20236c",
          "blockTimestamp": "0x69e87c7c",
          "transactionHash": "0x2802462ef4b15d16e3aa471ea266185ccaa4cd08ef969906640aa96b7524b266",
          "transactionIndex": "0x5",
          "logIndex": "0xd",
          "removed": false
        },
        {
          "address": "0xa983b18b8291f0c317ba4fe0dc0f7cc9373af078",
          "topics": [
            "0xa95bac2f3df0d40e8278281c1d39d53c60e4f2bf3550ca5665738d0916e89789",
            "0x0000000000000000000000007dfb2175a77e922f060bc0a59f83be6d2f4b85d4"
          ],
          "data": "0x0000000000000000000000000000000000000000000000000000000000000001",
          "blockHash": "0xb098e036c4342654682326ca1106658ae878d736ae9868f0d77a8ae21672c999",
          "blockNumber": "0x1b20236c",
          "blockTimestamp": "0x69e87c7c",
          "transactionHash": "0x2802462ef4b15d16e3aa471ea266185ccaa4cd08ef969906640aa96b7524b266",
          "transactionIndex": "0x5",
          "logIndex": "0xe",
          "removed": false
        }
      ],
      "logsBloom": "0x00000820001000000000000000000000000080000000000000800000000000000000200000400000000000000000000000000000000280000000000008800000100000040000000000000000000000000001000000000000040000000000000000000000020000000000000000000800000000000000020000000400080000400040000000000000000000000800008000200000000000200002000000000000000000000000040000000000000000000000000000004000000000000000400000000000000000000000000080000044000000000000000000000002000020000000000000000000000000000000000000000000000000000000000000000080",
      "type": "0x2",
      "transactionHash": "0x2802462ef4b15d16e3aa471ea266185ccaa4cd08ef969906640aa96b7524b266",
      "transactionIndex": "0x5",
      "blockHash": "0xb098e036c4342654682326ca1106658ae878d736ae9868f0d77a8ae21672c999",
      "blockNumber": "0x1b20236c",
      "gasUsed": "0x2c6daa",
      "effectiveGasPrice": "0x1322ed0",
      "from": "0x7dfb2175a77e922f060bc0a59f83be6d2f4b85d4",
      "to": null,
      "contractAddress": "0xa983b18b8291f0c317ba4fe0dc0f7cc9373af078",
      "gasUsedForL1": "0x3681a",
      "l1BlockNumber": "0x17c76a7",
      "timeboosted": false
    },
    {
      "status": "0x1",
      "cumulativeGasUsed": "0x34317",
      "logs": [
        {
          "address": "0xa983b18b8291f0c317ba4fe0dc0f7cc9373af078",
          "topics": [
            "0x1e37627b4601dccb350d9e7777d66e0de14589ca12f6131794359ab36397e909",
            "0x0000000000000000000000000000000000000000000000000000000000000001"
          ],
          "data": "0x00000000000000000000000000000000000000000000021e19e0c9bab2400000",
          "blockHash": "0x10e38b481f9398758fe1c7edc844d0145fa1c553e4d6f9b41b6863d5f36955ac",
          "blockNumber": "0x1b202376",
          "blockTimestamp": "0x69e87c7f",
          "transactionHash": "0x9529ababdef01d44099ce4bde42f8f4be8d2bb3b0625d45ca3829663068ead98",
          "transactionIndex": "0x2",
          "logIndex": "0x3",
          "removed": false
        }
      ],
      "logsBloom": "0x00000000001000000000000000000000000000000000000000000000000400000000000000000000000000000000000000000000000000000000000008040000000000000000000000000000000000000000000000040000000000000000000000000000000000000000000000000000000000000000000000000000000000000000000000000000000000000000000000000000000000000000000000000000000000000000040000000000000000000000000000000000000000000000000000000000000000000000000000000002000000000000000000000000000040000000000000000000000000004000000000000000000000000000000000000000",
      "type": "0x2",
      "transactionHash": "0x9529ababdef01d44099ce4bde42f8f4be8d2bb3b0625d45ca3829663068ead98",
      "transactionIndex": "0x2",
      "blockHash": "0x10e38b481f9398758fe1c7edc844d0145fa1c553e4d6f9b41b6863d5f36955ac",
      "blockNumber": "0x1b202376",
      "gasUsed": "0x1248d",
      "effectiveGasPrice": "0x1312d00",
      "from": "0x7dfb2175a77e922f060bc0a59f83be6d2f4b85d4",
      "to": "0xa983b18b8291f0c317ba4fe0dc0f7cc9373af078",
      "contractAddress": null,
      "gasUsedForL1": "0x13bd",
      "l1BlockNumber": "0x17c76a8",
      "timeboosted": false
    },
    {
      "status": "0x1",
      "cumulativeGasUsed": "0x46bd5",
      "logs": [
        {
          "address": "0xa983b18b8291f0c317ba4fe0dc0f7cc9373af078",
          "topics": [
            "0x1e37627b4601dccb350d9e7777d66e0de14589ca12f6131794359ab36397e909",
            "0x000000000000000000000000000000000000000000000000000000000000a4b1"
          ],
          "data": "0x00000000000000000000000000000000000000000000021e19e0c9bab2400000",
          "blockHash": "0x6777ac90384cfd543b92fe26123fe39739aa4270cf2c0cbf5b0371912c1cc5d8",
          "blockNumber": "0x1b202379",
          "blockTimestamp": "0x69e87c80",
          "transactionHash": "0x3f6a757e7ecbdc80039798cfbaf6ba2cba1997013fe5248e577f83c408fd5203",
          "transactionIndex": "0x3",
          "logIndex": "0x4",
          "removed": false
        }
      ],
      "logsBloom": "0x00000000001000000000000000000000000000000000000000000000000400000000000000000000000000000000000000000000000000000000000008000000000000000000000000000000000000000000000000000000000000000000000000000000000000000000000000000000000000000000000000000000000000000000000000000000000000000000000000000000000000000000000000000000000000000000040000000000000000000000000000000000000000000000000000000000000000010000000000000002000000000000004000000000000000000000000000000000000000004000100000000000000000000000000000000000",
      "type": "0x2",
      "transactionHash": "0x3f6a757e7ecbdc80039798cfbaf6ba2cba1997013fe5248e577f83c408fd5203",
      "transactionIndex": "0x3",
      "blockHash": "0x6777ac90384cfd543b92fe26123fe39739aa4270cf2c0cbf5b0371912c1cc5d8",
      "blockNumber": "0x1b202379",
      "gasUsed": "0x12489",
      "effectiveGasPrice": "0x1321f30",
      "from": "0x7dfb2175a77e922f060bc0a59f83be6d2f4b85d4",
      "to": "0xa983b18b8291f0c317ba4fe0dc0f7cc9373af078",
      "contractAddress": null,
      "gasUsedForL1": "0x13ad",
      "l1BlockNumber": "0x17c76a8",
      "timeboosted": false
    },
    {
      "status": "0x1",
      "cumulativeGasUsed": "0x12481",
      "logs": [
        {
          "address": "0xa983b18b8291f0c317ba4fe0dc0f7cc9373af078",
          "topics": [
            "0x1e37627b4601dccb350d9e7777d66e0de14589ca12f6131794359ab36397e909",
            "0x000000000000000000000000000000000000000000000000000000000000000a"
          ],
          "data": "0x00000000000000000000000000000000000000000000021e19e0c9bab2400000",
          "blockHash": "0x6b151242234642a0cd39fc9397a4d7b64a32c09257e9996d5b286bf42c39c35a",
          "blockNumber": "0x1b20237c",
          "blockTimestamp": "0x69e87c80",
          "transactionHash": "0x9a25315d15499291dd6693ac97256831e5d57e3a8afab955b2685e4c1b998d04",
          "transactionIndex": "0x1",
          "logIndex": "0x0",
          "removed": false
        }
      ],
      "logsBloom": "0x00000000001000000000000000000000000000000000000000000000000400000000000000000000000000000000000000000000040000000020000008000000000000000000000000000000000000000000000000000000000000000000000000000000000000000000000000000000000000000000000000000000000000000000000000000000010000000000000000000000000000000000000000000000000000000000040000000000000000000000000000000000000000000000000000000000000000000000000000000002000000000000000000000000000000000000000000000000000000004000000000000000000000000000000000000000",
      "type": "0x2",
      "transactionHash": "0x9a25315d15499291dd6693ac97256831e5d57e3a8afab955b2685e4c1b998d04",
      "transactionIndex": "0x1",
      "blockHash": "0x6b151242234642a0cd39fc9397a4d7b64a32c09257e9996d5b286bf42c39c35a",
      "blockNumber": "0x1b20237c",
      "gasUsed": "0x12481",
      "effectiveGasPrice": "0x131e880",
      "from": "0x7dfb2175a77e922f060bc0a59f83be6d2f4b85d4",
      "to": "0xa983b18b8291f0c317ba4fe0dc0f7cc9373af078",
      "contractAddress": null,
      "gasUsedForL1": "0x13b1",
      "l1BlockNumber": "0x17c76a8",
      "timeboosted": false
    },
    {
      "status": "0x1",
      "cumulativeGasUsed": "0x12499",
      "logs": [
        {
          "address": "0xa983b18b8291f0c317ba4fe0dc0f7cc9373af078",
          "topics": [
            "0x1e37627b4601dccb350d9e7777d66e0de14589ca12f6131794359ab36397e909",
            "0x0000000000000000000000000000000000000000000000000000000000002105"
          ],
          "data": "0x00000000000000000000000000000000000000000000021e19e0c9bab2400000",
          "blockHash": "0xef2aaa4c14238b08bb8c40e36f94d994116f01a2c76629e14cf1ad2996bdec67",
          "blockNumber": "0x1b202386",
          "blockTimestamp": "0x69e87c83",
          "transactionHash": "0x83ef88710f4c83b8fa2b6c371914d745e81942fa47fc3f10d5abb87e95ff44d0",
          "transactionIndex": "0x1",
          "logIndex": "0x0",
          "removed": false
        }
      ],
      "logsBloom": "0x00000000001000000000000000000000000000000000000000000000000400000000000000000000000000000000000000000000000000000001000008000000000000000000000000000000000000000000000000000000000000000000000000010000000000000000000000000000000000000000000000000000000000000000000000000000000000000000000000000000000000000000000020000000000000000000040000000000000000000000000000000000000000000000000000000000000000000000000000000002000000000000000000000000000000000000000000000000000000004000000000000000000000000000000000000000",
      "type": "0x2",
      "transactionHash": "0x83ef88710f4c83b8fa2b6c371914d745e81942fa47fc3f10d5abb87e95ff44d0",
      "transactionIndex": "0x1",
      "blockHash": "0xef2aaa4c14238b08bb8c40e36f94d994116f01a2c76629e14cf1ad2996bdec67",
      "blockNumber": "0x1b202386",
      "gasUsed": "0x12499",
      "effectiveGasPrice": "0x1312d00",
      "from": "0x7dfb2175a77e922f060bc0a59f83be6d2f4b85d4",
      "to": "0xa983b18b8291f0c317ba4fe0dc0f7cc9373af078",
      "contractAddress": null,
      "gasUsedForL1": "0x13bd",
      "l1BlockNumber": "0x17c76a8",
      "timeboosted": false
    },
    {
      "status": "0x1",
      "cumulativeGasUsed": "0x51380",
      "logs": [
        {
          "address": "0xa983b18b8291f0c317ba4fe0dc0f7cc9373af078",
          "topics": [
            "0x1e37627b4601dccb350d9e7777d66e0de14589ca12f6131794359ab36397e909",
            "0x0000000000000000000000000000000000000000000000000000000000000089"
          ],
          "data": "0x00000000000000000000000000000000000000000000021e19e0c9bab2400000",
          "blockHash": "0xdae8bf5956a41f9d34f6ea03f961705215d34285dfb38180712a9d27377e1ee1",
          "blockNumber": "0x1b202389",
          "blockTimestamp": "0x69e87c84",
          "transactionHash": "0x6331878cb2782ad4e0f94c7e9825864f640dbc8161094ec4bdf149c62341b0f5",
          "transactionIndex": "0x4",
          "logIndex": "0x1",
          "removed": false
        }
      ],
      "logsBloom": "0x00000000001000000000000000000000000000000000000000000000000400000000000000000000000000000000000000000000000000000000000008000000000000000000000000000000000000000000000000000000000000000000000000000000000000800000000000000000000000000000000000000000000000000400000000000000000000000002000000000000000000000000000000000000000000000000040000000000000000000000000000000000000000000000000000000000000000000000000000000002000000000000000000000000000000000000000000000000000000004000000000000000000000000000000000000000",
      "type": "0x2",
      "transactionHash": "0x6331878cb2782ad4e0f94c7e9825864f640dbc8161094ec4bdf149c62341b0f5",
      "transactionIndex": "0x4",
      "blockHash": "0xdae8bf5956a41f9d34f6ea03f961705215d34285dfb38180712a9d27377e1ee1",
      "blockNumber": "0x1b202389",
      "gasUsed": "0x12481",
      "effectiveGasPrice": "0x131e880",
      "from": "0x7dfb2175a77e922f060bc0a59f83be6d2f4b85d4",
      "to": "0xa983b18b8291f0c317ba4fe0dc0f7cc9373af078",
      "contractAddress": null,
      "gasUsedForL1": "0x13b1",
      "l1BlockNumber": "0x17c76a8",
      "timeboosted": false
    },
    {
      "status": "0x1",
      "cumulativeGasUsed": "0x1e853",
      "logs": [
        {
          "address": "0xa983b18b8291f0c317ba4fe0dc0f7cc9373af078",
          "topics": [
            "0x1e37627b4601dccb350d9e7777d66e0de14589ca12f6131794359ab36397e909",
            "0x0000000000000000000000000000000000000000000000000000000000000038"
          ],
          "data": "0x00000000000000000000000000000000000000000000021e19e0c9bab2400000",
          "blockHash": "0x3c653edf5d1784008ccfcaeb213d38f0a238d6988493b5af37c160683238e8ad",
          "blockNumber": "0x1b20238c",
          "blockTimestamp": "0x69e87c84",
          "transactionHash": "0x11006419b2c7201dc55f7ea9ecdc7f17238a289c0b114e1d138ed937da1de096",
          "transactionIndex": "0x2",
          "logIndex": "0x1",
          "removed": false
        }
      ],
      "logsBloom": "0x00000000001000000000000000000000000000000000000000000000000400000000000000000000000020000000000000000000000000000000000008000000000000000000000000000000000000000000000000000000000000000000000000000000000000000000000000000000000000002000000000000000000000000000000000000000000000000000000000000000000000000000000000000000000000000000040000000000000000000000000000000000000000000000000000000000000000000000000000000002000000000000000000000000000000000000000000000000000000004000000000000000000000000200000000000000",
      "type": "0x2",
      "transactionHash": "0x11006419b2c7201dc55f7ea9ecdc7f17238a289c0b114e1d138ed937da1de096",
      "transactionIndex": "0x2",
      "blockHash": "0x3c653edf5d1784008ccfcaeb213d38f0a238d6988493b5af37c160683238e8ad",
      "blockNumber": "0x1b20238c",
      "gasUsed": "0x1247c",
      "effectiveGasPrice": "0x1322ed0",
      "from": "0x7dfb2175a77e922f060bc0a59f83be6d2f4b85d4",
      "to": "0xa983b18b8291f0c317ba4fe0dc0f7cc9373af078",
      "contractAddress": null,
      "gasUsedForL1": "0x13ac",
      "l1BlockNumber": "0x17c76a8",
      "timeboosted": false
    },
    {
      "status": "0x1",
      "cumulativeGasUsed": "0x12493",
      "logs": [
        {
          "address": "0xa983b18b8291f0c317ba4fe0dc0f7cc9373af078",
          "topics": [
            "0x1e37627b4601dccb350d9e7777d66e0de14589ca12f6131794359ab36397e909",
            "0x000000000000000000000000000000000000000000000000000000000000a86a"
          ],
          "data": "0x00000000000000000000000000000000000000000000021e19e0c9bab2400000",
          "blockHash": "0xc208390748208334d6146725ffa2be13f74378837c272b62816bcb5aeaecdfd9",
          "blockNumber": "0x1b20238f",
          "blockTimestamp": "0x69e87c85",
          "transactionHash": "0x482c6450907949753e1eb8c1066f8a174ee30de9bd0c921816289e4b9d4266d2",
          "transactionIndex": "0x1",
          "logIndex": "0x0",
          "removed": false
        }
      ],
      "logsBloom": "0x00000000101000000000000000000000000000000000000000000000000400000000000000000000000000000000000000000000000000000000000008000000000000000000000000000000000000000000000000000000000000000000000000000000000000000000000000000000000000000000000000000000000000000000000000000000000000000000000000000000000000000000000000000000000000000000040000000000000000000000000000000000000000000000000000000000000000000000000000000002000000000000000000000000000000000000000000000000000000004000000000000000002000000000000000000080",
      "type": "0x2",
      "transactionHash": "0x482c6450907949753e1eb8c1066f8a174ee30de9bd0c921816289e4b9d4266d2",
      "transactionIndex": "0x1",
      "blockHash": "0xc208390748208334d6146725ffa2be13f74378837c272b62816bcb5aeaecdfd9",
      "blockNumber": "0x1b20238f",
      "gasUsed": "0x12493",
      "effectiveGasPrice": "0x13182f0",
      "from": "0x7dfb2175a77e922f060bc0a59f83be6d2f4b85d4",
      "to": "0xa983b18b8291f0c317ba4fe0dc0f7cc9373af078",
      "contractAddress": null,
      "gasUsedForL1": "0x13b7",
      "l1BlockNumber": "0x17c76a8",
      "timeboosted": false
    },
    {
      "status": "0x1",
      "cumulativeGasUsed": "0x60c39",
      "logs": [
        {
          "address": "0xa983b18b8291f0c317ba4fe0dc0f7cc9373af078",
          "topics": [
            "0x1e37627b4601dccb350d9e7777d66e0de14589ca12f6131794359ab36397e909",
            "0x0000000000000000000000000000000000000000000000000000000000000144"
          ],
          "data": "0x00000000000000000000000000000000000000000000021e19e0c9bab2400000",
          "blockHash": "0xf70f5197ae4e3700e9a598de9a777bf67e4d8fb1a97b1f22e2ee6c5353b55f69",
          "blockNumber": "0x1b202392",
          "blockTimestamp": "0x69e87c86",
          "transactionHash": "0xf778f58ec996c368ffe0ec5f149598b98a1a11b64775f416b996b32b83bbffea",
          "transactionIndex": "0x2",
          "logIndex": "0x8",
          "removed": false
        }
      ],
      "logsBloom": "0x00000000001000000000000000000002000000000000000000000000000400000000000000000000000000000000000000000000000000000000000008000000000000000000000000000000000000000000000000000000000000000000000000000000000000040000000000000000000000000000000000000080000000000000000000000000000000000000000000000000000000000000000000000000000000000000040000000000000000000000000000000000000000000000000000000000000000000000000000000002000000000000000000000000000000000000000000000000000000004000000000000000000000000000000000000000",
      "type": "0x2",
      "transactionHash": "0xf778f58ec996c368ffe0ec5f149598b98a1a11b64775f416b996b32b83bbffea",
      "transactionIndex": "0x2",
      "blockHash": "0xf70f5197ae4e3700e9a598de9a777bf67e4d8fb1a97b1f22e2ee6c5353b55f69",
      "blockNumber": "0x1b202392",
      "gasUsed": "0x12499",
      "effectiveGasPrice": "0x1312d00",
      "from": "0x7dfb2175a77e922f060bc0a59f83be6d2f4b85d4",
      "to": "0xa983b18b8291f0c317ba4fe0dc0f7cc9373af078",
      "contractAddress": null,
      "gasUsedForL1": "0x13bd",
      "l1BlockNumber": "0x17c76a8",
      "timeboosted": false
    },
    {
      "status": "0x1",
      "cumulativeGasUsed": "0x8a6d5",
      "logs": [
        {
          "address": "0xa983b18b8291f0c317ba4fe0dc0f7cc9373af078",
          "topics": [
            "0x1e37627b4601dccb350d9e7777d66e0de14589ca12f6131794359ab36397e909",
            "0x000000000000000000000000000000000000000000000000000000000000e708"
          ],
          "data": "0x00000000000000000000000000000000000000000000021e19e0c9bab2400000",
          "blockHash": "0x851b1ed2de2340503931ce867f5cfcfcaa6dc67179ccf5e5ae278a02c29abc18",
          "blockNumber": "0x1b202395",
          "blockTimestamp": "0x69e87c87",
          "transactionHash": "0x3f39cd6d48c901c0037cc06f54258d5c7d2ad610a5359c72b883a6529b0914cf",
          "transactionIndex": "0x5",
          "logIndex": "0xa",
          "removed": false
        }
      ],
      "logsBloom": "0x00000000001000000000000000000000000000000000000000000000000400000000000000000000000000000000000040000000000000000000000008000001000000000000000000000000000000000000000000000000000000000000000000000000000000000000000000000000000000000000000000000000000000000000000000000000000000000000000000000000000000000000000400000000000000000000040000000000000000000000000000000000000000000000000000000000000000000000000000000002000000000000000000000000000000000000000000000000000000004000000000000000000000000000000000000000",
      "type": "0x2",
      "transactionHash": "0x3f39cd6d48c901c0037cc06f54258d5c7d2ad610a5359c72b883a6529b0914cf",
      "transactionIndex": "0x5",
      "blockHash": "0x851b1ed2de2340503931ce867f5cfcfcaa6dc67179ccf5e5ae278a02c29abc18",
      "blockNumber": "0x1b202395",
      "gasUsed": "0x12484",
      "effectiveGasPrice": "0x1327520",
      "from": "0x7dfb2175a77e922f060bc0a59f83be6d2f4b85d4",
      "to": "0xa983b18b8291f0c317ba4fe0dc0f7cc9373af078",
      "contractAddress": null,
      "gasUsedForL1": "0x13a8",
      "l1BlockNumber": "0x17c76a8",
      "timeboosted": false
    },
    {
      "status": "0x1",
      "cumulativeGasUsed": "0x39c1a",
      "logs": [
        {
          "address": "0xa983b18b8291f0c317ba4fe0dc0f7cc9373af078",
          "topics": [
            "0x1e37627b4601dccb350d9e7777d66e0de14589ca12f6131794359ab36397e909",
            "0x0000000000000000000000000000000000000000000000000000000000082750"
          ],
          "data": "0x00000000000000000000000000000000000000000000021e19e0c9bab2400000",
          "blockHash": "0x4de7404a32de1908e9bf956585339f4a127f00dc78196d276701051fea35c12b",
          "blockNumber": "0x1b20239c",
          "blockTimestamp": "0x69e87c88",
          "transactionHash": "0xd7cef5f9f4f390d038d70c376b107d5b91f0a49884128ae11472a2a5058dfce2",
          "transactionIndex": "0x4",
          "logIndex": "0x1",
          "removed": false
        }
      ],
      "logsBloom": "0x00000000001000000000080000000000000000000000000000000000000400000000000000000000000000000000000000000000000000000000000008000000000000000000000000000000000000000000000000000000000000000000000000000000000000000000000000000000000000000000000000000000000000000000000000000000000000000000000000000000000000000000008000000000000000000000040000000000000000000000000000000000000000000000000000000000000000000000000000000002000000000000000000000000000000000000000000000000000000004000400000000000000000000000000000000000",
      "type": "0x2",
      "transactionHash": "0xd7cef5f9f4f390d038d70c376b107d5b91f0a49884128ae11472a2a5058dfce2",
      "transactionIndex": "0x4",
      "blockHash": "0x4de7404a32de1908e9bf956585339f4a127f00dc78196d276701051fea35c12b",
      "blockNumber": "0x1b20239c",
      "gasUsed": "0x12499",
      "effectiveGasPrice": "0x131e880",
      "from": "0x7dfb2175a77e922f060bc0a59f83be6d2f4b85d4",
      "to": "0xa983b18b8291f0c317ba4fe0dc0f7cc9373af078",
      "contractAddress": null,
      "gasUsedForL1": "0x13b1",
      "l1BlockNumber": "0x17c76a8",
      "timeboosted": false
    }
  ],
  "libraries": [],
  "pending": [],
  "returns": {},
  "timestamp": 1776843913080,
  "chain": 42161,
  "commit": "fed907b"
}