{
  "transactions": [
    {
      "hash": "0x5c4ae79f094fb3f5dbaaf3c48f15b7563bb7464961a90624623143c30d416c53",
      "transactionType": "CALL",
      "contractName": null,
      "contractAddress": "0x73846272813065c3e4efdb3fb82e0d128c8c2364",
      "function": "collect(address,uint8,bytes)",
      "arguments": [
        "0xb43B2CCCceadA5292732a8C58ae134AdEFcE09Bb",
        "0",
        "0x00000000000000000000000000000000000000000000000000000000000000400000000000000000000000000000000000000000000000000000000000000000000000000000000000000000000000000000000000000000000000000000004000000000000000000000000000000000000000000000000000000000000001409c901c08bbcbee383e781487674d7123e150e7e1b78b521db6d4a71066607f460000000000000000000000007d14ae5f20cc2f6421317386aa8e79e8728353d9000000000000000000000000b43b2cccceada5292732a8c58ae134adefce09bb00000000000000000000000073846272813065c3e4efdb3fb82e0d128c8c236400000000000000000000000000000000000000000000000018a6deca334953f7000000000000000000000000000000000000000000000000000003a35294400000000000000000000000000000000000000000000000000000000000000000e00000000000000000000000000000000000000000000000000000000000000000000000000000000000000000000000000000000000000000000000000000004136ddba6acaaf5852f298e4cccf745b629956985f8b86cfe9b442a321e444fc1d17c3e0fec1286fef7c16b92c6a3599a0683000db95d75da02439794a2e44b9011c00000000000000000000000000000000000000000000000000000000000000"
      ],
      "transaction": {
        "from": "0xd370ee7a865779d252f65c7455592f9f7d6f9a99",
        "to": "0x73846272813065c3e4efdb3fb82e0d128c8c2364",
        "gas": "0x8b4e9",
        "value": "0x0",
        "input": "0xb15d2a2c000000000000000000000000b43b2cccceada5292732a8c58ae134adefce09bb00000000000000000000000000000000000000000000000000000000000000000000000000000000000000000000000000000000000000000000000000000060000000000000000000000000000000000000000000000000000000000000020000000000000000000000000000000000000000000000000000000000000000400000000000000000000000000000000000000000000000000000000000000000000000000000000000000000000000000000000000000000000000000000004000000000000000000000000000000000000000000000000000000000000001409c901c08bbcbee383e781487674d7123e150e7e1b78b521db6d4a71066607f460000000000000000000000007d14ae5f20cc2f6421317386aa8e79e8728353d9000000000000000000000000b43b2cccceada5292732a8c58ae134adefce09bb00000000000000000000000073846272813065c3e4efdb3fb82e0d128c8c236400000000000000000000000000000000000000000000000018a6deca334953f7000000000000000000000000000000000000000000000000000003a35294400000000000000000000000000000000000000000000000000000000000000000e00000000000000000000000000000000000000000000000000000000000000000000000000000000000000000000000000000000000000000000000000000004136ddba6acaaf5852f298e4cccf745b629956985f8b86cfe9b442a321e444fc1d17c3e0fec1286fef7c16b92c6a3599a0683000db95d75da02439794a2e44b9011c00000000000000000000000000000000000000000000000000000000000000",
        "nonce": "0x3",
        "chainId": "0xa4b1"
      },
      "additionalContracts": [],
      "isFixedGasLimit": false
    }
  ],
  "receipts": [
    {
      "status": "0x1",
      "cumulativeGasUsed": "0x738ad",
      "logs": [
        {
          "address": "0x73846272813065c3e4efdb3fb82e0d128c8c2364",
          "topics": [
            "0x13f3fa9f0e54af1af76d8b5d11c3973d7c2aed6312b61efff2f7b49d73ad67eb",
            "0x000000000000000000000000b43b2cccceada5292732a8c58ae134adefce09bb"
          ],
          "data": "0x00000000000000000000000000000000000000000000000000000000000000000000000000000000000000000000000000000000000000000000000000000000",
          "blockHash": "0x32b2e9671b9fc231320284a68c8bda97c80143cf441985dab9de1122c7006d14",
          "blockNumber": "0x1b027e33",
          "blockTimestamp": "0x69e10a13",
          "transactionHash": "0x5c4ae79f094fb3f5dbaaf3c48f15b7563bb7464961a90624623143c30d416c53",
          "transactionIndex": "0x2",
          "logIndex": "0x1",
          "removed": false
        },
        {
          "address": "0x9623063377ad1b27544c965ccd7342f7ea7e88c7",
          "topics": [
            "0x8c5be1e5ebec7d5bd14f71427d1e84f3dd0314c0f7b2291e5b200ac8c7c3b925",
            "0x000000000000000000000000f6fcc27aaf1fcd8b254498c9794451d82afc673e",
            "0x0000000000000000000000007aae8ae011927bc36cb4d0d3e81f2e6e30dae06d"
          ],
          "data": "0x000000000000000000000000000000000000000000000000000003a352944000",
          "blockHash": "0x32b2e9671b9fc231320284a68c8bda97c80143cf441985dab9de1122c7006d14",
          "blockNumber": "0x1b027e33",
          "blockTimestamp": "0x69e10a13",
          "transactionHash": "0x5c4ae79f094fb3f5dbaaf3c48f15b7563bb7464961a90624623143c30d416c53",
          "transactionIndex": "0x2",
          "logIndex": "0x2",
          "removed": false
        },
        {
          "address": "0x9623063377ad1b27544c965ccd7342f7ea7e88c7",
          "topics": [
            "0xddf252ad1be2c89b69c2b068fc378daa952ba7f163c4a11628f55a4df523b3ef",
            "0x000000000000000000000000f6fcc27aaf1fcd8b254498c9794451d82afc673e",
            "0x0000000000000000000000007aae8ae011927bc36cb4d0d3e81f2e6e30dae06d"
          ],
          "data": "0x000000000000000000000000000000000000000000000000000003a352944000",
          "blockHash": "0x32b2e9671b9fc231320284a68c8bda97c80143cf441985dab9de1122c7006d14",
          "blockNumber": "0x1b027e33",
          "blockTimestamp": "0x69e10a13",
          "transactionHash": "0x5c4ae79f094fb3f5dbaaf3c48f15b7563bb7464961a90624623143c30d416c53",
          "transactionIndex": "0x2",
          "logIndex": "0x3",
          "removed": false
        },
        {
          "address": "0x9623063377ad1b27544c965ccd7342f7ea7e88c7",
          "topics": [
            "0x8c5be1e5ebec7d5bd14f71427d1e84f3dd0314c0f7b2291e5b200ac8c7c3b925",
            "0x000000000000000000000000f6fcc27aaf1fcd8b254498c9794451d82afc673e",
            "0x0000000000000000000000007aae8ae011927bc36cb4d0d3e81f2e6e30dae06d"
          ],
          "data": "0x0000000000000000000000000000000000000000000000000000000000000000",
          "blockHash": "0x32b2e9671b9fc231320284a68c8bda97c80143cf441985dab9de1122c7006d14",
          "blockNumber": "0x1b027e33",
          "blockTimestamp": "0x69e10a13",
          "transactionHash": "0x5c4ae79f094fb3f5dbaaf3c48f15b7563bb7464961a90624623143c30d416c53",
          "transactionIndex": "0x2",
          "logIndex": "0x4",
          "removed": false
        },
        {
          "address": "0x9623063377ad1b27544c965ccd7342f7ea7e88c7",
          "topics": [
            "0xddf252ad1be2c89b69c2b068fc378daa952ba7f163c4a11628f55a4df523b3ef",
            "0x0000000000000000000000007aae8ae011927bc36cb4d0d3e81f2e6e30dae06d",
            "0x0000000000000000000000000000000000000000000000000000000000000000"
          ],
          "data": "0x00000000000000000000000000000000000000000000000000000009502f9000",
          "blockHash": "0x32b2e9671b9fc231320284a68c8bda97c80143cf441985dab9de1122c7006d14",
          "blockNumber": "0x1b027e33",
          "blockTimestamp": "0x69e10a13",
          "transactionHash": "0x5c4ae79f094fb3f5dbaaf3c48f15b7563bb7464961a90624623143c30d416c53",
          "transactionIndex": "0x2",
          "logIndex": "0x5",
          "removed": false
        },
        {
          "address": "0x9623063377ad1b27544c965ccd7342f7ea7e88c7",
          "topics": [
            "0xddf252ad1be2c89b69c2b068fc378daa952ba7f163c4a11628f55a4df523b3ef",
            "0x0000000000000000000000007aae8ae011927bc36cb4d0d3e81f2e6e30dae06d",
            "0x000000000000000000000000b43b2cccceada5292732a8c58ae134adefce09bb"
          ],
          "data": "0x0000000000000000000000000000000000000000000000000000039a0264b000",
          "blockHash": "0x32b2e9671b9fc231320284a68c8bda97c80143cf441985dab9de1122c7006d14",
          "blockNumber": "0x1b027e33",
          "blockTimestamp": "0x69e10a13",
          "transactionHash": "0x5c4ae79f094fb3f5dbaaf3c48f15b7563bb7464961a90624623143c30d416c53",
          "transactionIndex": "0x2",
          "logIndex": "0x6",
          "removed": false
        },
        {
          "address": "0x7aae8ae011927bc36cb4d0d3e81f2e6e30dae06d",
          "topics": [
            "0xb1ac8b16683562f4b1b5ecbe3321151b400058de5cdd25ac44d5bfacb106765f",
            "0x0000000000000000000000000000000000000000000000000000000000000000",
            "0x000000000000000000000000f6fcc27aaf1fcd8b254498c9794451d82afc673e",
            "0x00000000000000000000000073846272813065c3e4efdb3fb82e0d128c8c2364"
          ],
          "data": "0x000000000000000000000000b43b2cccceada5292732a8c58ae134adefce09bb000000000000000000000000000000000000000000000000000003a35294400000000000000000000000000000000000000000000000000000000009502f9000000000000000000000000000000000000000000000000000000000000000000000000000000000000000000000000000000000000000000000000000000000000000000000000000000000000000000000000000000000000000039a0264b000000000000000000000000000b43b2cccceada5292732a8c58ae134adefce09bb",
          "blockHash": "0x32b2e9671b9fc231320284a68c8bda97c80143cf441985dab9de1122c7006d14",
          "blockNumber": "0x1b027e33",
          "blockTimestamp": "0x69e10a13",
          "transactionHash": "0x5c4ae79f094fb3f5dbaaf3c48f15b7563bb7464961a90624623143c30d416c53",
          "transactionIndex": "0x2",
          "logIndex": "0x7",
          "removed": false
        },
        {
          "address": "0xf6fcc27aaf1fcd8b254498c9794451d82afc673e",
          "topics": [
            "0x399b99b484be516eace7ececa486139581a25b0d2d12dac8bfa0948d07a8c913",
            "0x0000000000000000000000000000000000000000000000000000000000000000",
            "0x0000000000000000000000007d14ae5f20cc2f6421317386aa8e79e8728353d9",
            "0x0000000000000000000000008f69f5c07477ac46fbc491b1e6d91e2bb0111a9e"
          ],
          "data": "0x000000000000000000000000b43b2cccceada5292732a8c58ae134adefce09bb000000000000000000000000000000000000000000000000000003a352944000000000000000000000000000b43b2cccceada5292732a8c58ae134adefce09bb",
          "blockHash": "0x32b2e9671b9fc231320284a68c8bda97c80143cf441985dab9de1122c7006d14",
          "blockNumber": "0x1b027e33",
          "blockTimestamp": "0x69e10a13",
          "transactionHash": "0x5c4ae79f094fb3f5dbaaf3c48f15b7563bb7464961a90624623143c30d416c53",
          "transactionIndex": "0x2",
          "logIndex": "0x8",
          "removed": false
        },
        {
          "address": "0x8f69f5c07477ac46fbc491b1e6d91e2bb0111a9e",
          "topics": [
            "0x481a17595c709e8f745444fb9ffc8f0b5e98458de94463971947f548e12bbdb4",
            "0x9c901c08bbcbee383e781487674d7123e150e7e1b78b521db6d4a71066607f46",
            "0x0000000000000000000000007d14ae5f20cc2f6421317386aa8e79e8728353d9",
            "0x00000000000000000000000073846272813065c3e4efdb3fb82e0d128c8c2364"
          ],
          "data": "0x0000000000000000000000000000000000000000000000000000000000000000000000000000000000000000b43b2cccceada5292732a8c58ae134adefce09bb000000000000000000000000000000000000000000000000000003a352944000",
          "blockHash": "0x32b2e9671b9fc231320284a68c8bda97c80143cf441985dab9de1122c7006d14",
          "blockNumber": "0x1b027e33",
          "blockTimestamp": "0x69e10a13",
          "transactionHash": "0x5c4ae79f094fb3f5dbaaf3c48f15b7563bb7464961a90624623143c30d416c53",
          "transactionIndex": "0x2",
          "logIndex": "0x9",
          "removed": false
        },
        {
          "address": "0x8f69f5c07477ac46fbc491b1e6d91e2bb0111a9e",
          "topics": [
            "0x3943fc3b19ec289c87b57de7a8bf1448d81ced03d1806144ecaca4ba9e976056",
            "0x9c901c08bbcbee383e781487674d7123e150e7e1b78b521db6d4a71066607f46",
            "0x0000000000000000000000007d14ae5f20cc2f6421317386aa8e79e8728353d9",
            "0x00000000000000000000000073846272813065c3e4efdb3fb82e0d128c8c2364"
          ],
          "data": "0x000000000000000000000000b43b2cccceada5292732a8c58ae134adefce09bb00000000000000000000000000000000000000000000000018a6deca334953f7000000000000000000000000000000000000000000000000000003a35294400000000000000000000000000000000000000000000000000000000000000000a000000000000000000000000000000000000000000000000000000000000000c00000000000000000000000000000000000000000000000000000000000000000000000000000000000000000000000000000000000000000000000000000004136ddba6acaaf5852f298e4cccf745b629956985f8b86cfe9b442a321e444fc1d17c3e0fec1286fef7c16b92c6a3599a0683000db95d75da02439794a2e44b9011c00000000000000000000000000000000000000000000000000000000000000",
          "blockHash": "0x32b2e9671b9fc231320284a68c8bda97c80143cf441985dab9de1122c7006d14",
          "blockNumber": "0x1b027e33",
          "blockTimestamp": "0x69e10a13",
          "transactionHash": "0x5c4ae79f094fb3f5dbaaf3c48f15b7563bb7464961a90624623143c30d416c53",
          "transactionIndex": "0x2",
          "logIndex": "0xa",
          "removed": false
        },
        {
          "address": "0x73846272813065c3e4efdb3fb82e0d128c8c2364",
          "topics": [
            "0x5d9e2c5278e41138269f5f980cfbea016d8c59816754502abc4d2f87aaea987f",
            "0x000000000000000000000000b43b2cccceada5292732a8c58ae134adefce09bb",
            "0xd636dd19698aeedd7215cde8cfea88baa307a4b78974a241b872ff440e0e8cd2"
          ],
          "data": "0x000000000000000000000000000000000000000000000000000012309ce540000000000000000000000000000000000000000000000000000000000069f37f13",
          "blockHash": "0x32b2e9671b9fc231320284a68c8bda97c80143cf441985dab9de1122c7006d14",
          "blockNumber": "0x1b027e33",
          "blockTimestamp": "0x69e10a13",
          "transactionHash": "0x5c4ae79f094fb3f5dbaaf3c48f15b7563bb7464961a90624623143c30d416c53",
          "transactionIndex": "0x2",
          "logIndex": "0xb",
          "removed": false
        }
      ],
      "logsBloom": "0x00000000000000000000000000400000004100002000000000000000110000000800001000000001100000000000000000000000004080000000000000202000100004000000000000000008000004000000000000800000000400008000000000000008020000000000080000002800000000000000180000000010000000000000000100100010000040000000004000000100000000000020000000000000020000000000000000000008080008000040000000000000000080400008000000000002000008000004010000000400010040008000000000002004210020040010000004010000000000000000000000040000000100000000000002000000",
      "type": "0x2",
      "transactionHash": "0x5c4ae79f094fb3f5dbaaf3c48f15b7563bb7464961a90624623143c30d416c53",
      "transactionIndex": "0x2",
      "blockHash": "0x32b2e9671b9fc231320284a68c8bda97c80143cf441985dab9de1122c7006d14",
      "blockNumber": "0x1b027e33",
      "gasUsed": "0x609ee",
      "effectiveGasPrice": "0x1312d00",
      "from": "0xd370ee7a865779d252f65c7455592f9f7d6f9a99",
      "to": "0x73846272813065c3e4efdb3fb82e0d128c8c2364",
      "contractAddress": null,
      "gasUsedForL1": "0x607",
      "l1BlockNumber": "0x17bd837",
      "timeboosted": false
    }
  ],
  "libraries": [],
  "pending": [],
  "returns": {},
  "timestamp": 1776355861570,
  "chain": 42161,
  "commit": "d8fb321"
}